{
  "contractName": "DonationAresh",
  "abi": [
    {
      "constant": true,
      "inputs": [],
      "name": "amount",
      "outputs": [
        {
          "name": "",
          "type": "uint256"
        }
      ],
      "payable": false,
      "stateMutability": "view",
      "type": "function"
    },
    {
      "inputs": [],
      "payable": false,
      "stateMutability": "nonpayable",
      "type": "constructor"
    },
    {
      "payable": true,
      "stateMutability": "payable",
      "type": "fallback"
    },
    {
      "constant": false,
      "inputs": [
        {
          "name": "amountRaised",
          "type": "uint256"
        }
      ],
      "name": "safeMoney",
      "outputs": [],
      "payable": false,
      "stateMutability": "nonpayable",
      "type": "function"
    }
  ],
  "bytecode": "0x6060604052341561000f57600080fd5b336000806101000a81548173ffffffffffffffffffffffffffffffffffffffff021916908373ffffffffffffffffffffffffffffffffffffffff160217905550600060018190555061013a806100666000396000f30060606040526004361061004c576000357c0100000000000000000000000000000000000000000000000000000000900463ffffffff168063523883dd14610057578063aa8c217c1461007a575b610055346100a3565b005b341561006257600080fd5b61007860048080359060200190919050506100a3565b005b341561008557600080fd5b61008d610108565b6040518082815260200191505060405180910390f35b60015481016001819055506000809054906101000a900473ffffffffffffffffffffffffffffffffffffffff1673ffffffffffffffffffffffffffffffffffffffff166108fc829081150290604051600060405180830381858888f193505050505050565b600154815600a165627a7a723058209fa9b6f7b5ce7023cec6b436835dea20e97b0762329fadf8f8be991a911a63a70029",
  "source": "pragma solidity ^0.4.2;\r\n\r\ncontract DonationAresh {\r\n\r\n    address creator; //this is Aresh\r\n    uint public amount;\r\n\r\n    function DonationAresh() public{\r\n        creator = msg.sender;\r\n        amount =0;\r\n    }\r\n   \r\n   //fall back function that gets an amount of ether and sends to Creator\r\n    function () payable public{\r\n        safeMoney(msg.value);\r\n    }\r\n    \r\n    //send the amount to the creator\r\n    function safeMoney(uint amountRaised) public{\r\n        amount = amountRaised + amount;\r\n        creator.send(amountRaised);\r\n    }\r\n}",
  "sourcePath": "C:\\Users\\gpose\\Documents\\Soen321Project\\contracts\\DonationAresh.sol",
  "compiler": {
    "name": "solc",
    "version": "0.4.21+commit.dfe3193c.Emscripten.clang"
  },
  "schemaVersion": "2.0.0",
  "updatedAt": "2018-03-30T21:47:25.026Z"
}