{
  "contractName": "DonationAresh",
  "abi": [
    {
      "constant": true,
      "inputs": [],
      "name": "amount",
      "outputs": [
        {
          "name": "",
          "type": "uint256"
        }
      ],
      "payable": false,
      "stateMutability": "view",
      "type": "function"
    },
    {
      "inputs": [],
      "payable": false,
      "stateMutability": "nonpayable",
      "type": "constructor"
    },
    {
      "payable": true,
      "stateMutability": "payable",
      "type": "fallback"
    },
    {
      "constant": false,
      "inputs": [
        {
          "name": "amountRaised",
          "type": "uint256"
        }
      ],
      "name": "safeMoney",
      "outputs": [],
      "payable": false,
      "stateMutability": "nonpayable",
      "type": "function"
    },
    {
      "constant": false,
      "inputs": [
        {
          "name": "amountDecreased",
          "type": "uint256"
        }
      ],
      "name": "spending",
      "outputs": [],
      "payable": false,
      "stateMutability": "nonpayable",
      "type": "function"
    }
  ],
  "bytecode": "0x6060604052341561000f57600080fd5b336000806101000a81548173ffffffffffffffffffffffffffffffffffffffff021916908373ffffffffffffffffffffffffffffffffffffffff16021790555060006001819055506101d6806100666000396000f300606060405260043610610057576000357c0100000000000000000000000000000000000000000000000000000000900463ffffffff168063523883dd1461006b578063aa8c217c1461008e578063bc570c47146100b7575b610060346100da565b6100693461013f565b005b341561007657600080fd5b61008c60048080359060200190919050506100da565b005b341561009957600080fd5b6100a16101a4565b6040518082815260200191505060405180910390f35b34156100c257600080fd5b6100d8600480803590602001909190505061013f565b005b60015481016001819055506000809054906101000a900473ffffffffffffffffffffffffffffffffffffffff1673ffffffffffffffffffffffffffffffffffffffff166108fc829081150290604051600060405180830381858888f193505050505050565b80600154036001819055506000809054906101000a900473ffffffffffffffffffffffffffffffffffffffff1673ffffffffffffffffffffffffffffffffffffffff166108fc829081150290604051600060405180830381858888f193505050505050565b600154815600a165627a7a72305820333178ee8798491a1a700c44729fbec2a78e55295f8508c03ce1329316e0a4340029",
  "source": "pragma solidity ^0.4.2;\n\ncontract DonationAresh {\n\n    address creator; //this is Aresh\n    uint public amount;\n\n    function DonationAresh() public{\n        creator = msg.sender;\n        amount =0;\n    }\n   \n   //fall back function that gets an amount of ether and sends to Creator\n    function () payable public{\n        safeMoney(msg.value);\n        spending(msg.value);\n    }\n\n    \n    \n    //send the amount to the creator\n    function safeMoney(uint amountRaised) public{\n        amount = amountRaised + amount;\n        creator.send(amountRaised);\n    }\n\n    /*function address(address[] user) public payable{\n        for (unit i = 0; i < address.length; i++){\n            user.address = user[i];\n        }\n    }*/\n\n    function spending(uint amountDecreased) public{\n        amount = amount - amountDecreased;\n        creator.send(amountDecreased);\n    }\n}",
  "sourcePath": "/Users/marziesh/Soen321Project/contracts/DonationAresh.sol",
  "compiler": {
    "name": "solc",
    "version": "0.4.21+commit.dfe3193c.Emscripten.clang"
  },
  "schemaVersion": "2.0.0",
  "updatedAt": "2018-03-30T21:35:17.438Z"
}