{
  "contractName": "DonationAresh",
  "abi": [
    {
      "constant": true,
      "inputs": [],
      "name": "amount",
      "outputs": [
        {
          "name": "",
          "type": "uint256"
        }
      ],
      "payable": false,
      "stateMutability": "view",
      "type": "function"
    },
    {
      "inputs": [],
      "payable": false,
      "stateMutability": "nonpayable",
      "type": "constructor"
    },
    {
      "payable": true,
      "stateMutability": "payable",
      "type": "fallback"
    },
    {
      "constant": false,
      "inputs": [
        {
          "name": "amountRaised",
          "type": "uint256"
        }
      ],
      "name": "safeMoney",
      "outputs": [],
      "payable": false,
      "stateMutability": "nonpayable",
      "type": "function"
    }
  ],
  "bytecode": "0x6060604052341561000f57600080fd5b336000806101000a81548173ffffffffffffffffffffffffffffffffffffffff021916908373ffffffffffffffffffffffffffffffffffffffff160217905550600060018190555061013a806100666000396000f30060606040526004361061004c576000357c0100000000000000000000000000000000000000000000000000000000900463ffffffff168063523883dd14610057578063aa8c217c1461007a575b610055346100a3565b005b341561006257600080fd5b61007860048080359060200190919050506100a3565b005b341561008557600080fd5b61008d610108565b6040518082815260200191505060405180910390f35b60015481016001819055506000809054906101000a900473ffffffffffffffffffffffffffffffffffffffff1673ffffffffffffffffffffffffffffffffffffffff166108fc829081150290604051600060405180830381858888f193505050505050565b600154815600a165627a7a72305820a2ebc707342803abef9ccfc9066038fb100e8016c91289aaabfd9d53b28bff0a0029",
  "source": "pragma solidity ^0.4.2;\n\ncontract DonationAresh {\n\n    address creator; //this is Aresh\n    uint public amount;\n\n    function DonationAresh() public{\n        creator = msg.sender;\n        amount =0;\n    }\n   \n   //fall back function that gets an amount of ether and sends to Creator\n    function () payable public{\n        safeMoney(msg.value);\n    }\n    \n    //send the amount to the creator\n    function safeMoney(uint amountRaised) public{\n        amount = amountRaised + amount;\n        creator.send(amountRaised);\n    }\n}",
  "sourcePath": "/Users/marziesh/Soen321Project/contracts/DonationAresh.sol",
  "compiler": {
    "name": "solc",
    "version": "0.4.21+commit.dfe3193c.Emscripten.clang"
  },
  "schemaVersion": "2.0.0",
  "updatedAt": "2018-03-30T20:22:33.840Z"
}