{
  "contractName": "Voting",
  "abi": [
    {
      "constant": true,
      "inputs": [
        {
          "name": "",
          "type": "uint256"
        }
      ],
      "name": "onGoingVotes",
      "outputs": [
        {
          "name": "id",
          "type": "uint256"
        },
        {
          "name": "reason",
          "type": "string"
        },
        {
          "name": "account",
          "type": "string"
        },
        {
          "name": "yesCount",
          "type": "uint256"
        },
        {
          "name": "noCount",
          "type": "uint256"
        },
        {
          "name": "forBlock",
          "type": "bool"
        }
      ],
      "payable": false,
      "stateMutability": "view",
      "type": "function"
    },
    {
      "constant": true,
      "inputs": [
        {
          "name": "",
          "type": "address"
        }
      ],
      "name": "voters",
      "outputs": [
        {
          "name": "",
          "type": "bool"
        }
      ],
      "payable": false,
      "stateMutability": "view",
      "type": "function"
    },
    {
      "constant": true,
      "inputs": [],
      "name": "onGoingVotesCount",
      "outputs": [
        {
          "name": "",
          "type": "uint256"
        }
      ],
      "payable": false,
      "stateMutability": "view",
      "type": "function"
    },
    {
      "inputs": [],
      "payable": false,
      "stateMutability": "nonpayable",
      "type": "constructor"
    },
    {
      "anonymous": false,
      "inputs": [
        {
          "indexed": true,
          "name": "_candidateId",
          "type": "uint256"
        }
      ],
      "name": "votedEvent",
      "type": "event"
    },
    {
      "constant": false,
      "inputs": [
        {
          "name": "_reason",
          "type": "string"
        },
        {
          "name": "_account",
          "type": "string"
        },
        {
          "name": "blockOrUnblock",
          "type": "uint256"
        }
      ],
      "name": "addVoting",
      "outputs": [],
      "payable": false,
      "stateMutability": "nonpayable",
      "type": "function"
    },
    {
      "constant": false,
      "inputs": [
        {
          "name": "_candidateId",
          "type": "uint256"
        }
      ],
      "name": "verifyBlock",
      "outputs": [],
      "payable": false,
      "stateMutability": "nonpayable",
      "type": "function"
    },
    {
      "constant": false,
      "inputs": [
        {
          "name": "_candidateId",
          "type": "uint256"
        },
        {
          "name": "yesOrNo",
          "type": "uint256"
        }
      ],
      "name": "vote",
      "outputs": [],
      "payable": false,
      "stateMutability": "nonpayable",
      "type": "function"
    }
  ],
  "bytecode": "0x6060604052341561000f57600080fd5b6107c08061001e6000396000f300606060405260043610610078576000357c0100000000000000000000000000000000000000000000000000000000900463ffffffff168063232efe4d1461007d578063264e5d53146101a557806355f9b1ec146101c8578063a3ec138d14610271578063b384abef146102c2578063f03a0e15146102ee575b600080fd5b341561008857600080fd5b61009e6004808035906020019091905050610317565b60405180878152602001806020018060200186815260200185815260200184151515158152602001838103835288818151815260200191508051906020019080838360005b838110156100fe5780820151818401526020810190506100e3565b50505050905090810190601f16801561012b5780820380516001836020036101000a031916815260200191505b50838103825287818151815260200191508051906020019080838360005b83811015610164578082015181840152602081019050610149565b50505050905090810190601f1680156101915780820380516001836020036101000a031916815260200191505b509850505050505050505060405180910390f35b34156101b057600080fd5b6101c66004808035906020019091905050610490565b005b34156101d357600080fd5b61026f600480803590602001908201803590602001908080601f0160208091040260200160405190810160405280939291908181526020018383808284378201915050505050509190803590602001908201803590602001908080601f01602080910402602001604051908101604052809392919081815260200183838082843782019150505050505091908035906020019091905050610493565b005b341561027c57600080fd5b6102a8600480803573ffffffffffffffffffffffffffffffffffffffff16906020019091905050610571565b604051808215151515815260200191505060405180910390f35b34156102cd57600080fd5b6102ec6004808035906020019091908035906020019091905050610591565b005b34156102f957600080fd5b6103016106e9565b6040518082815260200191505060405180910390f35b6001602052806000526040600020600091509050806000015490806001018054600181600116156101000203166002900480601f0160208091040260200160405190810160405280929190818152602001828054600181600116156101000203166002900480156103c95780601f1061039e576101008083540402835291602001916103c9565b820191906000526020600020905b8154815290600101906020018083116103ac57829003601f168201915b505050505090806002018054600181600116156101000203166002900480601f0160208091040260200160405190810160405280929190818152602001828054600181600116156101000203166002900480156104675780601f1061043c57610100808354040283529160200191610467565b820191906000526020600020905b81548152906001019060200180831161044a57829003601f168201915b5050505050908060030154908060040154908060050160009054906101000a900460ff16905086565b50565b60026000815480929190600101919050555060c060405190810160405280600254815260200184815260200183815260200160008152602001600081526020018260011415158152506001600060025481526020019081526020016000206000820151816000015560208201518160010190805190602001906105179291906106ef565b5060408201518160020190805190602001906105349291906106ef565b50606082015181600301556080820151816004015560a08201518160050160006101000a81548160ff021916908315150217905550905050505050565b60006020528060005260406000206000915054906101000a900460ff1681565b6000803373ffffffffffffffffffffffffffffffffffffffff1673ffffffffffffffffffffffffffffffffffffffff16815260200190815260200160002060009054906101000a900460ff161515156105e957600080fd5b6000821180156105fb57506002548211155b151561060657600080fd5b60016000803373ffffffffffffffffffffffffffffffffffffffff1673ffffffffffffffffffffffffffffffffffffffff16815260200190815260200160002060006101000a81548160ff02191690831515021790555060008114156106915760016000838152602001908152602001600020600401600081548092919060010191905055506106b8565b60016000838152602001908152602001600020600301600081548092919060010191905055505b817ffff3c900d938d21d0990d786e819f29b8d05c1ef587b462b939609625b684b1660405160405180910390a25050565b60025481565b828054600181600116156101000203166002900490600052602060002090601f016020900481019282601f1061073057805160ff191683800117855561075e565b8280016001018555821561075e579182015b8281111561075d578251825591602001919060010190610742565b5b50905061076b919061076f565b5090565b61079191905b8082111561078d576000816000905550600101610775565b5090565b905600a165627a7a72305820954f8de3a1d339d268ae4d6ae6fc5ffc851647790f9fcc2529c7fdb2ea2f66770029",
  "source": "/*pragma solidity ^0.4.2;\n\ncontract Election {\n  // Store candidate\n  // Read candidate\n  string public candidate;\n  // Constrctor\n    function Elections () public {\n    candidate = \"Candidate 1\";\n  }\n}*/\n\n\n\npragma solidity ^0.4.2;\n\ncontract Voting {\n    // Model ongoing votes\n    struct OngoingVotes {\n        uint id;\n        string reason;\n        string account;\n        uint yesCount;\n        uint noCount;\n        bool forBlock;\n    }\n\n    // Store accounts that have voted\n    mapping(address => bool) public voters;\n    // Store onGoingVotes\n    // Fetch onGoingVotes\n    mapping(uint => OngoingVotes) public onGoingVotes;\n    // Store ongoing votes Count\n    uint public onGoingVotesCount;\n\n    // voted event\n    event votedEvent (\n        uint indexed _candidateId\n    );\n\n    function Voting () public {\n    }\n\n    /*\n    1 means for blocking and anything else for unblocking\n    */\n    function addVoting (string _reason, string _account, uint blockOrUnblock) public {\n        onGoingVotesCount ++;\n        onGoingVotes[onGoingVotesCount] = OngoingVotes(onGoingVotesCount, _reason, _account, 0, 0, 1 == blockOrUnblock);\n    }\n\n    /*\n    if block is true, means we are voting to block the client\n    if block is false, means client is already blocked and we are\n    voting to unblock the client\n    */\n    function verifyBlock(uint _candidateId) {\n        /*\n        yes means contractor did good job, no means bad job\n        if (block and maxVotes no) {\n            then block client from getting contracts\n        }\n\n        yes means majority wants client unblocked\n        if (!block and maxVotes yes) {\n            then unblock the client\n        }\n        */\n    }\n\n    /*\n    0 means no, anything else is yes\n    */\n    function vote (uint _candidateId, uint yesOrNo) public {\n        // require that they haven't voted before\n        require(!voters[msg.sender]);\n\n        // require a valid candidate\n        require(_candidateId > 0 && _candidateId <= onGoingVotesCount);\n\n        // record that voter has voted\n        voters[msg.sender] = true;\n\n        // update candidate vote Count\n        if(yesOrNo == 0) {\n            onGoingVotes[_candidateId].noCount ++;    \n        }\n        else {\n            onGoingVotes[_candidateId].yesCount ++;   \n        }\n        \n        // trigger voted event\n        votedEvent(_candidateId);\n    }\n}\n",
  "sourcePath": "/Users/marziesh/Soen321Project/contracts/Voting.sol",
  "compiler": {
    "name": "solc",
    "version": "0.4.21+commit.dfe3193c.Emscripten.clang"
  },
  "schemaVersion": "2.0.0",
  "updatedAt": "2018-03-31T19:45:23.359Z"
}